{
  "_format": "hh-sol-artifact-1",
  "contractName": "FileRegistrar",
  "sourceName": "contracts/registar.sol",
  "abi": [
    {
      "inputs": [
        {
          "internalType": "string",
          "name": "name_",
          "type": "string"
        },
        {
          "internalType": "string",
          "name": "symbol_",
          "type": "string"
        },
        {
          "internalType": "address payable",
          "name": "owner_",
          "type": "address"
        },
        {
          "internalType": "uint256",
          "name": "feeAmount_",
          "type": "uint256"
        }
      ],
      "stateMutability": "nonpayable",
      "type": "constructor"
    },
    {
      "anonymous": false,
      "inputs": [
        {
          "indexed": true,
          "internalType": "address",
          "name": "owner",
          "type": "address"
        },
        {
          "indexed": true,
          "internalType": "address",
          "name": "approved",
          "type": "address"
        },
        {
          "indexed": true,
          "internalType": "uint256",
          "name": "tokenId",
          "type": "uint256"
        }
      ],
      "name": "Approval",
      "type": "event"
    },
    {
      "anonymous": false,
      "inputs": [
        {
          "indexed": true,
          "internalType": "address",
          "name": "owner",
          "type": "address"
        },
        {
          "indexed": true,
          "internalType": "address",
          "name": "operator",
          "type": "address"
        },
        {
          "indexed": false,
          "internalType": "bool",
          "name": "approved",
          "type": "bool"
        }
      ],
      "name": "ApprovalForAll",
      "type": "event"
    },
    {
      "anonymous": false,
      "inputs": [
        {
          "indexed": true,
          "internalType": "address",
          "name": "from",
          "type": "address"
        },
        {
          "indexed": true,
          "internalType": "address",
          "name": "to",
          "type": "address"
        },
        {
          "indexed": true,
          "internalType": "uint256",
          "name": "tokenId",
          "type": "uint256"
        }
      ],
      "name": "Transfer",
      "type": "event"
    },
    {
      "inputs": [
        {
          "internalType": "address",
          "name": "to",
          "type": "address"
        },
        {
          "internalType": "uint256",
          "name": "tokenId",
          "type": "uint256"
        }
      ],
      "name": "approve",
      "outputs": [],
      "stateMutability": "nonpayable",
      "type": "function"
    },
    {
      "inputs": [
        {
          "internalType": "address",
          "name": "owner",
          "type": "address"
        }
      ],
      "name": "balanceOf",
      "outputs": [
        {
          "internalType": "uint256",
          "name": "",
          "type": "uint256"
        }
      ],
      "stateMutability": "view",
      "type": "function"
    },
    {
      "inputs": [
        {
          "internalType": "uint256",
          "name": "tokenId",
          "type": "uint256"
        }
      ],
      "name": "getApproved",
      "outputs": [
        {
          "internalType": "address",
          "name": "",
          "type": "address"
        }
      ],
      "stateMutability": "view",
      "type": "function"
    },
    {
      "inputs": [
        {
          "internalType": "uint256",
          "name": "tokenId",
          "type": "uint256"
        }
      ],
      "name": "getFileMetadata",
      "outputs": [
        {
          "components": [
            {
              "internalType": "string",
              "name": "name",
              "type": "string"
            },
            {
              "internalType": "string",
              "name": "description",
              "type": "string"
            },
            {
              "internalType": "string",
              "name": "fileLink",
              "type": "string"
            },
            {
              "internalType": "bytes32",
              "name": "fileHash",
              "type": "bytes32"
            }
          ],
          "internalType": "struct FileRegistrar.FileMetadata",
          "name": "",
          "type": "tuple"
        }
      ],
      "stateMutability": "view",
      "type": "function"
    },
    {
      "inputs": [
        {
          "internalType": "address",
          "name": "owner",
          "type": "address"
        },
        {
          "internalType": "address",
          "name": "operator",
          "type": "address"
        }
      ],
      "name": "isApprovedForAll",
      "outputs": [
        {
          "internalType": "bool",
          "name": "",
          "type": "bool"
        }
      ],
      "stateMutability": "view",
      "type": "function"
    },
    {
      "inputs": [],
      "name": "name",
      "outputs": [
        {
          "internalType": "string",
          "name": "",
          "type": "string"
        }
      ],
      "stateMutability": "view",
      "type": "function"
    },
    {
      "inputs": [
        {
          "internalType": "uint256",
          "name": "tokenId",
          "type": "uint256"
        }
      ],
      "name": "ownerOf",
      "outputs": [
        {
          "internalType": "address",
          "name": "",
          "type": "address"
        }
      ],
      "stateMutability": "view",
      "type": "function"
    },
    {
      "inputs": [
        {
          "internalType": "string",
          "name": "name",
          "type": "string"
        },
        {
          "internalType": "string",
          "name": "description",
          "type": "string"
        },
        {
          "internalType": "string",
          "name": "fileLink",
          "type": "string"
        },
        {
          "internalType": "bytes32",
          "name": "fileHash",
          "type": "bytes32"
        }
      ],
      "name": "registerFile",
      "outputs": [
        {
          "internalType": "uint256",
          "name": "",
          "type": "uint256"
        }
      ],
      "stateMutability": "payable",
      "type": "function"
    },
    {
      "inputs": [
        {
          "internalType": "address",
          "name": "from",
          "type": "address"
        },
        {
          "internalType": "address",
          "name": "to",
          "type": "address"
        },
        {
          "internalType": "uint256",
          "name": "tokenId",
          "type": "uint256"
        }
      ],
      "name": "safeTransferFrom",
      "outputs": [],
      "stateMutability": "nonpayable",
      "type": "function"
    },
    {
      "inputs": [
        {
          "internalType": "address",
          "name": "from",
          "type": "address"
        },
        {
          "internalType": "address",
          "name": "to",
          "type": "address"
        },
        {
          "internalType": "uint256",
          "name": "tokenId",
          "type": "uint256"
        },
        {
          "internalType": "bytes",
          "name": "data",
          "type": "bytes"
        }
      ],
      "name": "safeTransferFrom",
      "outputs": [],
      "stateMutability": "nonpayable",
      "type": "function"
    },
    {
      "inputs": [
        {
          "internalType": "address",
          "name": "operator",
          "type": "address"
        },
        {
          "internalType": "bool",
          "name": "approved",
          "type": "bool"
        }
      ],
      "name": "setApprovalForAll",
      "outputs": [],
      "stateMutability": "nonpayable",
      "type": "function"
    },
    {
      "inputs": [
        {
          "internalType": "uint256",
          "name": "feeAmount_",
          "type": "uint256"
        }
      ],
      "name": "setFeeAmount",
      "outputs": [],
      "stateMutability": "nonpayable",
      "type": "function"
    },
    {
      "inputs": [
        {
          "internalType": "address payable",
          "name": "owner_",
          "type": "address"
        }
      ],
      "name": "setOwner",
      "outputs": [],
      "stateMutability": "nonpayable",
      "type": "function"
    },
    {
      "inputs": [
        {
          "internalType": "bytes4",
          "name": "interfaceId",
          "type": "bytes4"
        }
      ],
      "name": "supportsInterface",
      "outputs": [
        {
          "internalType": "bool",
          "name": "",
          "type": "bool"
        }
      ],
      "stateMutability": "view",
      "type": "function"
    },
    {
      "inputs": [],
      "name": "symbol",
      "outputs": [
        {
          "internalType": "string",
          "name": "",
          "type": "string"
        }
      ],
      "stateMutability": "view",
      "type": "function"
    },
    {
      "inputs": [
        {
          "internalType": "uint256",
          "name": "tokenId",
          "type": "uint256"
        }
      ],
      "name": "tokenURI",
      "outputs": [
        {
          "internalType": "string",
          "name": "",
          "type": "string"
        }
      ],
      "stateMutability": "view",
      "type": "function"
    },
    {
      "inputs": [
        {
          "internalType": "address",
          "name": "from",
          "type": "address"
        },
        {
          "internalType": "address",
          "name": "to",
          "type": "address"
        },
        {
          "internalType": "uint256",
          "name": "tokenId",
          "type": "uint256"
        }
      ],
      "name": "transferFrom",
      "outputs": [],
      "stateMutability": "nonpayable",
      "type": "function"
    }
  ],
  "bytecode": "0x60806040523480156200001157600080fd5b50604051620039cf380380620039cf8339818101604052810190620000379190620002e4565b838381600090816200004a9190620005d5565b5080600190816200005c9190620005d5565b50505081600860006101000a81548173ffffffffffffffffffffffffffffffffffffffff021916908373ffffffffffffffffffffffffffffffffffffffff1602179055508060098190555050505050620006bc565b6000604051905090565b600080fd5b600080fd5b600080fd5b600080fd5b6000601f19601f8301169050919050565b7f4e487b7100000000000000000000000000000000000000000000000000000000600052604160045260246000fd5b6200011a82620000cf565b810181811067ffffffffffffffff821117156200013c576200013b620000e0565b5b80604052505050565b600062000151620000b1565b90506200015f82826200010f565b919050565b600067ffffffffffffffff821115620001825762000181620000e0565b5b6200018d82620000cf565b9050602081019050919050565b60005b83811015620001ba5780820151818401526020810190506200019d565b60008484015250505050565b6000620001dd620001d78462000164565b62000145565b905082815260208101848484011115620001fc57620001fb620000ca565b5b620002098482856200019a565b509392505050565b600082601f830112620002295762000228620000c5565b5b81516200023b848260208601620001c6565b91505092915050565b600073ffffffffffffffffffffffffffffffffffffffff82169050919050565b6000620002718262000244565b9050919050565b620002838162000264565b81146200028f57600080fd5b50565b600081519050620002a38162000278565b92915050565b6000819050919050565b620002be81620002a9565b8114620002ca57600080fd5b50565b600081519050620002de81620002b3565b92915050565b60008060008060808587031215620003015762000300620000bb565b5b600085015167ffffffffffffffff811115620003225762000321620000c0565b5b620003308782880162000211565b945050602085015167ffffffffffffffff811115620003545762000353620000c0565b5b620003628782880162000211565b9350506040620003758782880162000292565b92505060606200038887828801620002cd565b91505092959194509250565b600081519050919050565b7f4e487b7100000000000000000000000000000000000000000000000000000000600052602260045260246000fd5b60006002820490506001821680620003e757607f821691505b602082108103620003fd57620003fc6200039f565b5b50919050565b60008190508160005260206000209050919050565b60006020601f8301049050919050565b600082821b905092915050565b600060088302620004677fffffffffffffffffffffffffffffffffffffffffffffffffffffffffffffffff8262000428565b62000473868362000428565b95508019841693508086168417925050509392505050565b6000819050919050565b6000620004b6620004b0620004aa84620002a9565b6200048b565b620002a9565b9050919050565b6000819050919050565b620004d28362000495565b620004ea620004e182620004bd565b84845462000435565b825550505050565b600090565b62000501620004f2565b6200050e818484620004c7565b505050565b5b8181101562000536576200052a600082620004f7565b60018101905062000514565b5050565b601f82111562000585576200054f8162000403565b6200055a8462000418565b810160208510156200056a578190505b62000582620005798562000418565b83018262000513565b50505b505050565b600082821c905092915050565b6000620005aa600019846008026200058a565b1980831691505092915050565b6000620005c5838362000597565b9150826002028217905092915050565b620005e08262000394565b67ffffffffffffffff811115620005fc57620005fb620000e0565b5b620006088254620003ce565b620006158282856200053a565b600060209050601f8311600181146200064d576000841562000638578287015190505b620006448582620005b7565b865550620006b4565b601f1984166200065d8662000403565b60005b82811015620006875784890151825560018201915060208501945060208101905062000660565b86831015620006a75784890151620006a3601f89168262000597565b8355505b6001600288020188555050505b505050505050565b61330380620006cc6000396000f3fe6080604052600436106100fe5760003560e01c80636b39268011610095578063a22cb46511610064578063a22cb46514610357578063b88d4fde14610380578063c87b56dd146103a9578063e7a04d03146103e6578063e985e9c514610416576100fe565b80636b392680146102895780636ccb28e2146102b257806370a08231146102ef57806395d89b411461032c576100fe565b806313af4035116100d157806313af4035146101d157806323b872dd146101fa57806342842e0e146102235780636352211e1461024c576100fe565b806301ffc9a71461010357806306fdde0314610140578063081812fc1461016b578063095ea7b3146101a8575b600080fd5b34801561010f57600080fd5b5061012a60048036038101906101259190611e76565b610453565b6040516101379190611ebe565b60405180910390f35b34801561014c57600080fd5b50610155610535565b6040516101629190611f69565b60405180910390f35b34801561017757600080fd5b50610192600480360381019061018d9190611fc1565b6105c7565b60405161019f919061202f565b60405180910390f35b3480156101b457600080fd5b506101cf60048036038101906101ca9190612076565b61060d565b005b3480156101dd57600080fd5b506101f860048036038101906101f391906120f4565b610724565b005b34801561020657600080fd5b50610221600480360381019061021c9190612121565b6107f8565b005b34801561022f57600080fd5b5061024a60048036038101906102459190612121565b610858565b005b34801561025857600080fd5b50610273600480360381019061026e9190611fc1565b610878565b604051610280919061202f565b60405180910390f35b34801561029557600080fd5b506102b060048036038101906102ab9190611fc1565b6108fe565b005b3480156102be57600080fd5b506102d960048036038101906102d49190611fc1565b610998565b6040516102e69190612248565b60405180910390f35b3480156102fb57600080fd5b506103166004803603810190610311919061226a565b610bcd565b60405161032391906122a6565b60405180910390f35b34801561033857600080fd5b50610341610c84565b60405161034e9190611f69565b60405180910390f35b34801561036357600080fd5b5061037e600480360381019061037991906122ed565b610d16565b005b34801561038c57600080fd5b506103a760048036038101906103a29190612462565b610d2c565b005b3480156103b557600080fd5b506103d060048036038101906103cb9190611fc1565b610d8e565b6040516103dd9190611f69565b60405180910390f35b61040060048036038101906103fb91906125b2565b610df6565b60405161040d91906122a6565b60405180910390f35b34801561042257600080fd5b5061043d6004803603810190610438919061266d565b610f59565b60405161044a9190611ebe565b60405180910390f35b60007f80ac58cd000000000000000000000000000000000000000000000000000000007bffffffffffffffffffffffffffffffffffffffffffffffffffffffff1916827bffffffffffffffffffffffffffffffffffffffffffffffffffffffff1916148061051e57507f5b5e139f000000000000000000000000000000000000000000000000000000007bffffffffffffffffffffffffffffffffffffffffffffffffffffffff1916827bffffffffffffffffffffffffffffffffffffffffffffffffffffffff1916145b8061052e575061052d82610fed565b5b9050919050565b606060008054610544906126dc565b80601f0160208091040260200160405190810160405280929190818152602001828054610570906126dc565b80156105bd5780601f10610592576101008083540402835291602001916105bd565b820191906000526020600020905b8154815290600101906020018083116105a057829003601f168201915b5050505050905090565b60006105d282611057565b6004600083815260200190815260200160002060009054906101000a900473ffffffffffffffffffffffffffffffffffffffff169050919050565b600061061882610878565b90508073ffffffffffffffffffffffffffffffffffffffff168373ffffffffffffffffffffffffffffffffffffffff1603610688576040517f08c379a000000000000000000000000000000000000000000000000000000000815260040161067f9061277f565b60405180910390fd5b8073ffffffffffffffffffffffffffffffffffffffff166106a76110a2565b73ffffffffffffffffffffffffffffffffffffffff1614806106d657506106d5816106d06110a2565b610f59565b5b610715576040517f08c379a000000000000000000000000000000000000000000000000000000000815260040161070c90612811565b60405180910390fd5b61071f83836110aa565b505050565b600860009054906101000a900473ffffffffffffffffffffffffffffffffffffffff1673ffffffffffffffffffffffffffffffffffffffff163373ffffffffffffffffffffffffffffffffffffffff16146107b4576040517f08c379a00000000000000000000000000000000000000000000000000000000081526004016107ab906128a3565b60405180910390fd5b80600860006101000a81548173ffffffffffffffffffffffffffffffffffffffff021916908373ffffffffffffffffffffffffffffffffffffffff16021790555050565b6108096108036110a2565b82611163565b610848576040517f08c379a000000000000000000000000000000000000000000000000000000000815260040161083f90612935565b60405180910390fd5b6108538383836111f8565b505050565b61087383838360405180602001604052806000815250610d2c565b505050565b600080610884836114f1565b9050600073ffffffffffffffffffffffffffffffffffffffff168173ffffffffffffffffffffffffffffffffffffffff16036108f5576040517f08c379a00000000000000000000000000000000000000000000000000000000081526004016108ec906129a1565b60405180910390fd5b80915050919050565b600860009054906101000a900473ffffffffffffffffffffffffffffffffffffffff1673ffffffffffffffffffffffffffffffffffffffff163373ffffffffffffffffffffffffffffffffffffffff161461098e576040517f08c379a000000000000000000000000000000000000000000000000000000000815260040161098590612a33565b60405180910390fd5b8060098190555050565b6109a0611ddf565b6109a98261152e565b6109e8576040517f08c379a00000000000000000000000000000000000000000000000000000000081526004016109df90612ac5565b60405180910390fd5b60066000838152602001908152602001600020604051806080016040529081600082018054610a16906126dc565b80601f0160208091040260200160405190810160405280929190818152602001828054610a42906126dc565b8015610a8f5780601f10610a6457610100808354040283529160200191610a8f565b820191906000526020600020905b815481529060010190602001808311610a7257829003601f168201915b50505050508152602001600182018054610aa8906126dc565b80601f0160208091040260200160405190810160405280929190818152602001828054610ad4906126dc565b8015610b215780601f10610af657610100808354040283529160200191610b21565b820191906000526020600020905b815481529060010190602001808311610b0457829003601f168201915b50505050508152602001600282018054610b3a906126dc565b80601f0160208091040260200160405190810160405280929190818152602001828054610b66906126dc565b8015610bb35780601f10610b8857610100808354040283529160200191610bb3565b820191906000526020600020905b815481529060010190602001808311610b9657829003601f168201915b505050505081526020016003820154815250509050919050565b60008073ffffffffffffffffffffffffffffffffffffffff168273ffffffffffffffffffffffffffffffffffffffff1603610c3d576040517f08c379a0000000000000000000000000000000000000000000000000000000008152600401610c3490612b57565b60405180910390fd5b600360008373ffffffffffffffffffffffffffffffffffffffff1673ffffffffffffffffffffffffffffffffffffffff168152602001908152602001600020549050919050565b606060018054610c93906126dc565b80601f0160208091040260200160405190810160405280929190818152602001828054610cbf906126dc565b8015610d0c5780601f10610ce157610100808354040283529160200191610d0c565b820191906000526020600020905b815481529060010190602001808311610cef57829003601f168201915b5050505050905090565b610d28610d216110a2565b838361156f565b5050565b610d3d610d376110a2565b83611163565b610d7c576040517f08c379a0000000000000000000000000000000000000000000000000000000008152600401610d7390612935565b60405180910390fd5b610d88848484846116db565b50505050565b6060610d9982611057565b6000610da3611737565b90506000815111610dc35760405180602001604052806000815250610dee565b80610dcd8461174e565b604051602001610dde929190612bb3565b6040516020818303038152906040525b915050919050565b6000600954341015610e3d576040517f08c379a0000000000000000000000000000000000000000000000000000000008152600401610e3490612c23565b60405180910390fd5b610e47600761181c565b6000610e536007611832565b9050610e5f3382611840565b604051806080016040528087815260200186815260200185815260200184815250600660008381526020019081526020016000206000820151816000019081610ea89190612def565b506020820151816001019081610ebe9190612def565b506040820151816002019081610ed49190612def565b5060608201518160030155905050600860009054906101000a900473ffffffffffffffffffffffffffffffffffffffff1673ffffffffffffffffffffffffffffffffffffffff166108fc6009549081150290604051600060405180830381858888f19350505050158015610f4c573d6000803e3d6000fd5b5080915050949350505050565b6000600560008473ffffffffffffffffffffffffffffffffffffffff1673ffffffffffffffffffffffffffffffffffffffff16815260200190815260200160002060008373ffffffffffffffffffffffffffffffffffffffff1673ffffffffffffffffffffffffffffffffffffffff16815260200190815260200160002060009054906101000a900460ff16905092915050565b60007f01ffc9a7000000000000000000000000000000000000000000000000000000007bffffffffffffffffffffffffffffffffffffffffffffffffffffffff1916827bffffffffffffffffffffffffffffffffffffffffffffffffffffffff1916149050919050565b6110608161152e565b61109f576040517f08c379a0000000000000000000000000000000000000000000000000000000008152600401611096906129a1565b60405180910390fd5b50565b600033905090565b816004600083815260200190815260200160002060006101000a81548173ffffffffffffffffffffffffffffffffffffffff021916908373ffffffffffffffffffffffffffffffffffffffff160217905550808273ffffffffffffffffffffffffffffffffffffffff1661111d83610878565b73ffffffffffffffffffffffffffffffffffffffff167f8c5be1e5ebec7d5bd14f71427d1e84f3dd0314c0f7b2291e5b200ac8c7c3b92560405160405180910390a45050565b60008061116f83610878565b90508073ffffffffffffffffffffffffffffffffffffffff168473ffffffffffffffffffffffffffffffffffffffff1614806111b157506111b08185610f59565b5b806111ef57508373ffffffffffffffffffffffffffffffffffffffff166111d7846105c7565b73ffffffffffffffffffffffffffffffffffffffff16145b91505092915050565b8273ffffffffffffffffffffffffffffffffffffffff1661121882610878565b73ffffffffffffffffffffffffffffffffffffffff161461126e576040517f08c379a000000000000000000000000000000000000000000000000000000000815260040161126590612f33565b60405180910390fd5b600073ffffffffffffffffffffffffffffffffffffffff168273ffffffffffffffffffffffffffffffffffffffff16036112dd576040517f08c379a00000000000000000000000000000000000000000000000000000000081526004016112d490612fc5565b60405180910390fd5b6112ea838383600161185e565b8273ffffffffffffffffffffffffffffffffffffffff1661130a82610878565b73ffffffffffffffffffffffffffffffffffffffff1614611360576040517f08c379a000000000000000000000000000000000000000000000000000000000815260040161135790612f33565b60405180910390fd5b6004600082815260200190815260200160002060006101000a81549073ffffffffffffffffffffffffffffffffffffffff02191690556001600360008573ffffffffffffffffffffffffffffffffffffffff1673ffffffffffffffffffffffffffffffffffffffff168152602001908152602001600020600082825403925050819055506001600360008473ffffffffffffffffffffffffffffffffffffffff1673ffffffffffffffffffffffffffffffffffffffff16815260200190815260200160002060008282540192505081905550816002600083815260200190815260200160002060006101000a81548173ffffffffffffffffffffffffffffffffffffffff021916908373ffffffffffffffffffffffffffffffffffffffff160217905550808273ffffffffffffffffffffffffffffffffffffffff168473ffffffffffffffffffffffffffffffffffffffff167fddf252ad1be2c89b69c2b068fc378daa952ba7f163c4a11628f55a4df523b3ef60405160405180910390a46114ec8383836001611864565b505050565b60006002600083815260200190815260200160002060009054906101000a900473ffffffffffffffffffffffffffffffffffffffff169050919050565b60008073ffffffffffffffffffffffffffffffffffffffff16611550836114f1565b73ffffffffffffffffffffffffffffffffffffffff1614159050919050565b8173ffffffffffffffffffffffffffffffffffffffff168373ffffffffffffffffffffffffffffffffffffffff16036115dd576040517f08c379a00000000000000000000000000000000000000000000000000000000081526004016115d490613031565b60405180910390fd5b80600560008573ffffffffffffffffffffffffffffffffffffffff1673ffffffffffffffffffffffffffffffffffffffff16815260200190815260200160002060008473ffffffffffffffffffffffffffffffffffffffff1673ffffffffffffffffffffffffffffffffffffffff16815260200190815260200160002060006101000a81548160ff0219169083151502179055508173ffffffffffffffffffffffffffffffffffffffff168373ffffffffffffffffffffffffffffffffffffffff167f17307eab39ab6107e8899845ad3d59bd9653f200f220920489ca2b5937696c31836040516116ce9190611ebe565b60405180910390a3505050565b6116e68484846111f8565b6116f28484848461186a565b611731576040517f08c379a0000000000000000000000000000000000000000000000000000000008152600401611728906130c3565b60405180910390fd5b50505050565b606060405180602001604052806000815250905090565b60606000600161175d846119f1565b01905060008167ffffffffffffffff81111561177c5761177b612337565b5b6040519080825280601f01601f1916602001820160405280156117ae5781602001600182028036833780820191505090505b509050600082602001820190505b600115611811578080600190039150507f3031323334353637383961626364656600000000000000000000000000000000600a86061a8153600a8581611805576118046130e3565b5b049450600085036117bc575b819350505050919050565b6001816000016000828254019250508190555050565b600081600001549050919050565b61185a828260405180602001604052806000815250611b44565b5050565b50505050565b50505050565b600061188b8473ffffffffffffffffffffffffffffffffffffffff16611b9f565b156119e4578373ffffffffffffffffffffffffffffffffffffffff1663150b7a026118b46110a2565b8786866040518563ffffffff1660e01b81526004016118d69493929190613167565b6020604051808303816000875af192505050801561191257506040513d601f19601f8201168201806040525081019061190f91906131c8565b60015b611994573d8060008114611942576040519150601f19603f3d011682016040523d82523d6000602084013e611947565b606091505b50600081510361198c576040517f08c379a0000000000000000000000000000000000000000000000000000000008152600401611983906130c3565b60405180910390fd5b805181602001fd5b63150b7a0260e01b7bffffffffffffffffffffffffffffffffffffffffffffffffffffffff1916817bffffffffffffffffffffffffffffffffffffffffffffffffffffffff1916149150506119e9565b600190505b949350505050565b600080600090507a184f03e93ff9f4daa797ed6e38ed64bf6a1f0100000000000000008310611a4f577a184f03e93ff9f4daa797ed6e38ed64bf6a1f0100000000000000008381611a4557611a446130e3565b5b0492506040810190505b6d04ee2d6d415b85acef81000000008310611a8c576d04ee2d6d415b85acef81000000008381611a8257611a816130e3565b5b0492506020810190505b662386f26fc100008310611abb57662386f26fc100008381611ab157611ab06130e3565b5b0492506010810190505b6305f5e1008310611ae4576305f5e1008381611ada57611ad96130e3565b5b0492506008810190505b6127108310611b09576127108381611aff57611afe6130e3565b5b0492506004810190505b60648310611b2c5760648381611b2257611b216130e3565b5b0492506002810190505b600a8310611b3b576001810190505b80915050919050565b611b4e8383611bc2565b611b5b600084848461186a565b611b9a576040517f08c379a0000000000000000000000000000000000000000000000000000000008152600401611b91906130c3565b60405180910390fd5b505050565b6000808273ffffffffffffffffffffffffffffffffffffffff163b119050919050565b600073ffffffffffffffffffffffffffffffffffffffff168273ffffffffffffffffffffffffffffffffffffffff1603611c31576040517f08c379a0000000000000000000000000000000000000000000000000000000008152600401611c2890613241565b60405180910390fd5b611c3a8161152e565b15611c7a576040517f08c379a0000000000000000000000000000000000000000000000000000000008152600401611c71906132ad565b60405180910390fd5b611c8860008383600161185e565b611c918161152e565b15611cd1576040517f08c379a0000000000000000000000000000000000000000000000000000000008152600401611cc8906132ad565b60405180910390fd5b6001600360008473ffffffffffffffffffffffffffffffffffffffff1673ffffffffffffffffffffffffffffffffffffffff16815260200190815260200160002060008282540192505081905550816002600083815260200190815260200160002060006101000a81548173ffffffffffffffffffffffffffffffffffffffff021916908373ffffffffffffffffffffffffffffffffffffffff160217905550808273ffffffffffffffffffffffffffffffffffffffff16600073ffffffffffffffffffffffffffffffffffffffff167fddf252ad1be2c89b69c2b068fc378daa952ba7f163c4a11628f55a4df523b3ef60405160405180910390a4611ddb600083836001611864565b5050565b6040518060800160405280606081526020016060815260200160608152602001600080191681525090565b6000604051905090565b600080fd5b600080fd5b60007fffffffff0000000000000000000000000000000000000000000000000000000082169050919050565b611e5381611e1e565b8114611e5e57600080fd5b50565b600081359050611e7081611e4a565b92915050565b600060208284031215611e8c57611e8b611e14565b5b6000611e9a84828501611e61565b91505092915050565b60008115159050919050565b611eb881611ea3565b82525050565b6000602082019050611ed36000830184611eaf565b92915050565b600081519050919050565b600082825260208201905092915050565b60005b83811015611f13578082015181840152602081019050611ef8565b60008484015250505050565b6000601f19601f8301169050919050565b6000611f3b82611ed9565b611f458185611ee4565b9350611f55818560208601611ef5565b611f5e81611f1f565b840191505092915050565b60006020820190508181036000830152611f838184611f30565b905092915050565b6000819050919050565b611f9e81611f8b565b8114611fa957600080fd5b50565b600081359050611fbb81611f95565b92915050565b600060208284031215611fd757611fd6611e14565b5b6000611fe584828501611fac565b91505092915050565b600073ffffffffffffffffffffffffffffffffffffffff82169050919050565b600061201982611fee565b9050919050565b6120298161200e565b82525050565b60006020820190506120446000830184612020565b92915050565b6120538161200e565b811461205e57600080fd5b50565b6000813590506120708161204a565b92915050565b6000806040838503121561208d5761208c611e14565b5b600061209b85828601612061565b92505060206120ac85828601611fac565b9150509250929050565b60006120c182611fee565b9050919050565b6120d1816120b6565b81146120dc57600080fd5b50565b6000813590506120ee816120c8565b92915050565b60006020828403121561210a57612109611e14565b5b6000612118848285016120df565b91505092915050565b60008060006060848603121561213a57612139611e14565b5b600061214886828701612061565b935050602061215986828701612061565b925050604061216a86828701611fac565b9150509250925092565b600082825260208201905092915050565b600061219082611ed9565b61219a8185612174565b93506121aa818560208601611ef5565b6121b381611f1f565b840191505092915050565b6000819050919050565b6121d1816121be565b82525050565b600060808301600083015184820360008601526121f48282612185565b9150506020830151848203602086015261220e8282612185565b915050604083015184820360408601526122288282612185565b915050606083015161223d60608601826121c8565b508091505092915050565b6000602082019050818103600083015261226281846121d7565b905092915050565b6000602082840312156122805761227f611e14565b5b600061228e84828501612061565b91505092915050565b6122a081611f8b565b82525050565b60006020820190506122bb6000830184612297565b92915050565b6122ca81611ea3565b81146122d557600080fd5b50565b6000813590506122e7816122c1565b92915050565b6000806040838503121561230457612303611e14565b5b600061231285828601612061565b9250506020612323858286016122d8565b9150509250929050565b600080fd5b600080fd5b7f4e487b7100000000000000000000000000000000000000000000000000000000600052604160045260246000fd5b61236f82611f1f565b810181811067ffffffffffffffff8211171561238e5761238d612337565b5b80604052505050565b60006123a1611e0a565b90506123ad8282612366565b919050565b600067ffffffffffffffff8211156123cd576123cc612337565b5b6123d682611f1f565b9050602081019050919050565b82818337600083830152505050565b6000612405612400846123b2565b612397565b90508281526020810184848401111561242157612420612332565b5b61242c8482856123e3565b509392505050565b600082601f8301126124495761244861232d565b5b81356124598482602086016123f2565b91505092915050565b6000806000806080858703121561247c5761247b611e14565b5b600061248a87828801612061565b945050602061249b87828801612061565b93505060406124ac87828801611fac565b925050606085013567ffffffffffffffff8111156124cd576124cc611e19565b5b6124d987828801612434565b91505092959194509250565b600067ffffffffffffffff821115612500576124ff612337565b5b61250982611f1f565b9050602081019050919050565b6000612529612524846124e5565b612397565b90508281526020810184848401111561254557612544612332565b5b6125508482856123e3565b509392505050565b600082601f83011261256d5761256c61232d565b5b813561257d848260208601612516565b91505092915050565b61258f816121be565b811461259a57600080fd5b50565b6000813590506125ac81612586565b92915050565b600080600080608085870312156125cc576125cb611e14565b5b600085013567ffffffffffffffff8111156125ea576125e9611e19565b5b6125f687828801612558565b945050602085013567ffffffffffffffff81111561261757612616611e19565b5b61262387828801612558565b935050604085013567ffffffffffffffff81111561264457612643611e19565b5b61265087828801612558565b92505060606126618782880161259d565b91505092959194509250565b6000806040838503121561268457612683611e14565b5b600061269285828601612061565b92505060206126a385828601612061565b9150509250929050565b7f4e487b7100000000000000000000000000000000000000000000000000000000600052602260045260246000fd5b600060028204905060018216806126f457607f821691505b602082108103612707576127066126ad565b5b50919050565b7f4552433732313a20617070726f76616c20746f2063757272656e74206f776e6560008201527f7200000000000000000000000000000000000000000000000000000000000000602082015250565b6000612769602183611ee4565b91506127748261270d565b604082019050919050565b600060208201905081810360008301526127988161275c565b9050919050565b7f4552433732313a20617070726f76652063616c6c6572206973206e6f7420746f60008201527f6b656e206f776e6572206f7220617070726f76656420666f7220616c6c000000602082015250565b60006127fb603d83611ee4565b91506128068261279f565b604082019050919050565b6000602082019050818103600083015261282a816127ee565b9050919050565b7f46696c655265676973747261723a206f6e6c79206f776e65722063616e20736560008201527f74206e6577206f776e6572000000000000000000000000000000000000000000602082015250565b600061288d602b83611ee4565b915061289882612831565b604082019050919050565b600060208201905081810360008301526128bc81612880565b9050919050565b7f4552433732313a2063616c6c6572206973206e6f7420746f6b656e206f776e6560008201527f72206f7220617070726f76656400000000000000000000000000000000000000602082015250565b600061291f602d83611ee4565b915061292a826128c3565b604082019050919050565b6000602082019050818103600083015261294e81612912565b9050919050565b7f4552433732313a20696e76616c696420746f6b656e2049440000000000000000600082015250565b600061298b601883611ee4565b915061299682612955565b602082019050919050565b600060208201905081810360008301526129ba8161297e565b9050919050565b7f46696c655265676973747261723a206f6e6c79206f776e65722063616e20736560008201527f742066656520616d6f756e740000000000000000000000000000000000000000602082015250565b6000612a1d602c83611ee4565b9150612a28826129c1565b604082019050919050565b60006020820190508181036000830152612a4c81612a10565b9050919050565b7f46696c655265676973747261723a20746f6b656e20646f6573206e6f7420657860008201527f6973740000000000000000000000000000000000000000000000000000000000602082015250565b6000612aaf602383611ee4565b9150612aba82612a53565b604082019050919050565b60006020820190508181036000830152612ade81612aa2565b9050919050565b7f4552433732313a2061646472657373207a65726f206973206e6f74206120766160008201527f6c6964206f776e65720000000000000000000000000000000000000000000000602082015250565b6000612b41602983611ee4565b9150612b4c82612ae5565b604082019050919050565b60006020820190508181036000830152612b7081612b34565b9050919050565b600081905092915050565b6000612b8d82611ed9565b612b978185612b77565b9350612ba7818560208601611ef5565b80840191505092915050565b6000612bbf8285612b82565b9150612bcb8284612b82565b91508190509392505050565b7f46696c655265676973747261723a2066656520746f6f206c6f77000000000000600082015250565b6000612c0d601a83611ee4565b9150612c1882612bd7565b602082019050919050565b60006020820190508181036000830152612c3c81612c00565b9050919050565b60008190508160005260206000209050919050565b60006020601f8301049050919050565b600082821b905092915050565b600060088302612ca57fffffffffffffffffffffffffffffffffffffffffffffffffffffffffffffffff82612c68565b612caf8683612c68565b95508019841693508086168417925050509392505050565b6000819050919050565b6000612cec612ce7612ce284611f8b565b612cc7565b611f8b565b9050919050565b6000819050919050565b612d0683612cd1565b612d1a612d1282612cf3565b848454612c75565b825550505050565b600090565b612d2f612d22565b612d3a818484612cfd565b505050565b5b81811015612d5e57612d53600082612d27565b600181019050612d40565b5050565b601f821115612da357612d7481612c43565b612d7d84612c58565b81016020851015612d8c578190505b612da0612d9885612c58565b830182612d3f565b50505b505050565b600082821c905092915050565b6000612dc660001984600802612da8565b1980831691505092915050565b6000612ddf8383612db5565b9150826002028217905092915050565b612df882611ed9565b67ffffffffffffffff811115612e1157612e10612337565b5b612e1b82546126dc565b612e26828285612d62565b600060209050601f831160018114612e595760008415612e47578287015190505b612e518582612dd3565b865550612eb9565b601f198416612e6786612c43565b60005b82811015612e8f57848901518255600182019150602085019450602081019050612e6a565b86831015612eac5784890151612ea8601f891682612db5565b8355505b6001600288020188555050505b505050505050565b7f4552433732313a207472616e736665722066726f6d20696e636f72726563742060008201527f6f776e6572000000000000000000000000000000000000000000000000000000602082015250565b6000612f1d602583611ee4565b9150612f2882612ec1565b604082019050919050565b60006020820190508181036000830152612f4c81612f10565b9050919050565b7f4552433732313a207472616e7366657220746f20746865207a65726f2061646460008201527f7265737300000000000000000000000000000000000000000000000000000000602082015250565b6000612faf602483611ee4565b9150612fba82612f53565b604082019050919050565b60006020820190508181036000830152612fde81612fa2565b9050919050565b7f4552433732313a20617070726f766520746f2063616c6c657200000000000000600082015250565b600061301b601983611ee4565b915061302682612fe5565b602082019050919050565b6000602082019050818103600083015261304a8161300e565b9050919050565b7f4552433732313a207472616e7366657220746f206e6f6e20455243373231526560008201527f63656976657220696d706c656d656e7465720000000000000000000000000000602082015250565b60006130ad603283611ee4565b91506130b882613051565b604082019050919050565b600060208201905081810360008301526130dc816130a0565b9050919050565b7f4e487b7100000000000000000000000000000000000000000000000000000000600052601260045260246000fd5b600081519050919050565b600082825260208201905092915050565b600061313982613112565b613143818561311d565b9350613153818560208601611ef5565b61315c81611f1f565b840191505092915050565b600060808201905061317c6000830187612020565b6131896020830186612020565b6131966040830185612297565b81810360608301526131a8818461312e565b905095945050505050565b6000815190506131c281611e4a565b92915050565b6000602082840312156131de576131dd611e14565b5b60006131ec848285016131b3565b91505092915050565b7f4552433732313a206d696e7420746f20746865207a65726f2061646472657373600082015250565b600061322b602083611ee4565b9150613236826131f5565b602082019050919050565b6000602082019050818103600083015261325a8161321e565b9050919050565b7f4552433732313a20746f6b656e20616c7265616479206d696e74656400000000600082015250565b6000613297601c83611ee4565b91506132a282613261565b602082019050919050565b600060208201905081810360008301526132c68161328a565b905091905056fea26469706673582212207d9a087daccbb99a8f205f500075ccadf9f8545184c7aef8a08ba34157d2548d64736f6c63430008120033",
  "linkReferences": {},
  "deployedLinkReferences": {}
}